NUTF0011PPPFEE  072200000901000000065916123CAMS00   000000000000000000000000000001000000137163110700003683114572023010900000000000000+0000000000000000000000000000000000000000000000000INSTANDHOUDINGSGELDE                                        0000000000000000000000000000000000000005002049486900000000 051095160003570000f54391b5-7071-425c-8889-1d5dec707792                                    dd3858bf-de09-5f16-998f-382ecd6026a920230107110847051503-TO-1512                        000000000009500090ZAR                                                                B000000B       1512-TO-1503                        3570000094ZB000000000000000000                                                                                                                                                                                                                                                  0000000000000000                                                                                                                                                                                                                            0000000000000001371631107                                                                                                                                   
NUTF0011PPPFEE  072200000901000000066916123CAMS00   000000000000000000000000000001000000137163265000003683114052023010900000000000000+0000000003000000000000000000000000000000000000000SASWITCH FEE                                                0000000000000000000000101100000000000001202049486900000000 0510951600014201024be0a04d-1b33-432c-a921-25690181ba99                                    07e41bca-1e10-5ab7-9181-40e2fc9882f320230107110847061503-TO-1512                        000000000009500090ZAR                                                                B000000B       1512-TO-1503                        1420102041IB000000000000000391                                                                                                                                                                                                                                                  0000000000000000                                                                                                                                                                                                                            0000000000000001371632650                                                                                                                                   
NUTF0011PPPFEE  072200000901000000067916123CAMS00   000000000000000000000000000009000000900072250000003683263012023010900000000000000+0000000002609000000000000000000000000000000000000SASWITCH FEE                                      13716326500000000000000000000000101100000000000001202049486900000000 0510951600014201022a165960-116f-49a2-848f-e46ad969f4ea                                    07e41bca-1e10-5ab7-9181-40e2fc9882f320230107110847061503-TO-1512                        000000000009500090ZAR                                                                B000000B       1512-TO-1503                        1420102041IB000000000000000000                                                                                                                                                                                                                                                  0000000000000000                                                                                                                                                                                                                            0000000000000001371632650                                                                                                                                   
NUTF0011PPPFEE  072200000901000000068916123CAMS00   000000000000000000000000000009000000900017400000003683263012023010900000000000000+0000000000391000000000000000000000000000000000000SASWITCH FEE                                      13716326500000000000000000000000101100000000000001202049486900000000 051095160001420102492e59ad-0edf-40ab-ae9c-7e9d2bc184e9                                    07e41bca-1e10-5ab7-9181-40e2fc9882f320230107110847061503-TO-1512                        000000000009500090ZAR                                                                B000000B       1512-TO-1503                        1420102041IB000000000000000000                                                                                                                                                                                                                                                  0000000000000000                                                                                                                                                                                                                            0000000000000001371632650                                                                                                                                   
NUTF0011PPPFEE  072200000901000000069916123CAMS00   000000000000000000000000000001000000137182378200003683114572023010900000000000000+0000000000000000000000000000000000000000000000000MAINTENANCE FEE                                             0000000000000000000000000000000000000005002049486900000000 051095160003570000ab25940f-c576-499f-ad17-bcc4c07ed363                                    1e983a6e-5f6e-5f1e-a790-c2fef5004d2620230107110847061503-TO-1512                        000000000009500090ZAR                                                                B000000B       1512-TO-1503                        3570000094ZB000000000000000000                                                                                                                                                                                                                                                  0000000000000000                                                                                                                                                                                                                            0000000000000001371823782                                                                                                                                   
NUTF0011PPPFEE  072200000901000000070916123CAMS00   000000000000000000000000000001000000137182339100003683114572023010900000000000000+0000000000000000000000000000000000000000000000000MAINTENANCE FEE                                             0000000000000000000000000000000000000005002049486900000000 051095160003570000f6dce659-4b4a-4919-9508-e6271cbe5853                                    d1e728e8-8c9f-54b9-9649-4159381db05920230107110847161503-TO-1512                        000000000009500090ZAR                                                                B000000B       1512-TO-1503                        3570000094ZB000000000000000000                                                                                                                                                                                                                                                  0000000000000000                                                                                                                                                                                                                            0000000000000001371823391                                                                                                                                   
NUTF0011PPPFEE  072200000901000000071916123CAMS00   000000000000000000000000000001000000137163110700003683114052023010900000000000000+0000000006000000000000000000000000000000000000000SASWITCH KOSTE                                              0000000000000000000000447100000000000001202049486900000000 051095160001420102a60389dc-8479-4411-ac30-376db4c4bc2f                                    00cb7ec4-4732-5685-855e-b3311988fde520230107110847161503-TO-1512                        000000000009500090ZAR                                                                B000000B       1512-TO-1503                        1420102041IB000000000000000783                                                                                                                                                                                                                                                  0000000000000000                                                                                                                                                                                                                            0000000000000001371631107                                                                                                                                   
NUTF0011PPPFEE  072200000901000000072916123CAMS00   000000000000000000000000000009000000900072250000003683263012023010900000000000000+0000000005217000000000000000000000000000000000000SASWITCH FEE                                      13716311070000000000000000000000447100000000000001202049486900000000 051095160001420102e8a028ed-961a-4b7e-a7b6-4a9b525534d6                                    00cb7ec4-4732-5685-855e-b3311988fde520230107110847161503-TO-1512                        000000000009500090ZAR                                                                B000000B       1512-TO-1503                        1420102041IB000000000000000000                                                                                                                                                                                                                                                  0000000000000000                                                                                                                                                                                                                            0000000000000001371631107                                                                                                                                   
NUTF0011PPPFEE  072200000901000000073916123CAMS00   000000000000000000000000000009000000900017400000003683263012023010900000000000000+0000000000783000000000000000000000000000000000000SASWITCH FEE                                      13716311070000000000000000000000447100000000000001202049486900000000 051095160001420102785047a0-f36d-44a3-b70f-0efa6eba70af                                    00cb7ec4-4732-5685-855e-b3311988fde520230107110847161503-TO-1512                        000000000009500090ZAR                                                                B000000B       1512-TO-1503                        1420102041IB000000000000000000                                                                                                                                                                                                                                                  0000000000000000                                                                                                                                                                                                                            0000000000000001371631107                                                                                                                                   
NUTF0011PPPFEE  09600000090100000007711443H2H       000000000000000000000000000001000000137162849100003683114352023010900000000000000+0000000000000000000000000000000000000000000000000CASH TRANSACTION FEE                                        0000000000000000000000359400000000000000412000000002181280 00887111000135100163870ef3-9d7d-4c98-81f2-2d70afe283b2                                    e174bc06-f2a0-5071-9597-d4796a6ef82720230107110847171503-TO-1512                        000000000009500090ZAR                                                                B000000B       1512-TO-1503                        1351001057ZB000000000000000000                                                                                                                                                                                                                                                  0000000000000000                                                                                                                                                                                                                            0000000000000001371628491                                                                                                                                   
NUTF0011PPPFEE  072200000901000000074916123CAMS00   000000000000000000000000000001000000137163085200003683114052023010900000000000000+0000000002000000000000000000000000000000000000000SASWITCH FEE                                                0000000000000000000000099800000000000001202049486900000000 05109516000142010269175f11-9ddc-49f5-b0d2-5f7b5ac9e2c4                                    78186388-4ace-54c2-ab35-b0d2112bd16e20230107110847161503-TO-1512                        000000000009500090ZAR                                                                B000000B       1512-TO-1503                        1420102041IB000000000000000261                                                                                                                                                                                                                                                  0000000000000000                                                                                                                                                                                                                            0000000000000001371630852                                                                                                                                   
NUTF0011PPPFEE  072200000901000000075916123CAMS00   000000000000000000000000000009000000900072250000003683263012023010900000000000000+0000000001739000000000000000000000000000000000000SASWITCH FEE                                      13716308520000000000000000000000099800000000000001202049486900000000 0510951600014201027e7e1990-1952-4d68-a8af-ee6cf2b3672b                                    78186388-4ace-54c2-ab35-b0d2112bd16e20230107110847161503-TO-1512                        000000000009500090ZAR                                                                B000000B       1512-TO-1503                        1420102041IB000000000000000000                                                                                                                                                                                                                                                  0000000000000000                                                                                                                                                                                                                            0000000000000001371630852                                                                                                                                   
NUTF0011PPPFEE  072200000901000000076916123CAMS00   000000000000000000000000000009000000900017400000003683263012023010900000000000000+0000000000261000000000000000000000000000000000000SASWITCH FEE                                      13716308520000000000000000000000099800000000000001202049486900000000 05109516000142010224551246-3ce9-4955-8672-5a68fc0eee70                                    78186388-4ace-54c2-ab35-b0d2112bd16e20230107110847161503-TO-1512                        000000000009500090ZAR                                                                B000000B       1512-TO-1503                        1420102041IB000000000000000000                                                                                                                                                                                                                                                  0000000000000000                                                                                                                                                                                                                            0000000000000001371630852                                                                                                                                   
NUTF0011PPPFEE  09600000090100000007811443H2H       000000000000000000000000000001000000137162849100003683114352023010900000000000000+0000000020000000000000000000000000000000000000000BR CASH R3594.0FEE                                          0000000000000000000000359400000000000000412000000002181280 008871110001351001c7239d80-1d87-4ef8-9e0b-0ab1b43904de                                    e174bc06-f2a0-5071-9597-d4796a6ef82720230107110847171503-TO-1512                        000000000009500090ZAR                                                                B000000B       1512-TO-1503                        1351001057IB000000000000002609                                                                                                                                                                                                                                                  0000000000000000                                                                                                                                                                                                                            0000000000000001371628491                                                                                                                                   
NUTF0011PPPFEE  09600000090100000007911443H2H       000000000000000000000000000009000000900061250000003683263012023010900000000000000+0000000017391000000000000000000000000000000000000CASH DEPOSIT                                      13716284910000000000000000000000359400000000000000412000000002181280 00887111000135100155795b1b-b3d3-4a8d-8289-00fe3a7d3ca0                                    e174bc06-f2a0-5071-9597-d4796a6ef82720230107110847171503-TO-1512                        000000000009500090ZAR                                                                B000000B       1512-TO-1503                        1351001057IB000000000000000000                                                                                                                                                                                                                                                  0000000000000000                                                                                                                                                                                                                            0000000000000001371628491                                                                                                                                   
NUTF0011PPPFEE  09600000090100000008011443H2H       000000000000000000000000000009000000900017400000003683263012023010900000000000000+0000000002609000000000000000000000000000000000000CASH DEPOSIT                                      13716284910000000000000000000000359400000000000000412000000002181280 00887111000135100130452a37-0ee8-49bb-94b0-22b5de5516e9                                    e174bc06-f2a0-5071-9597-d4796a6ef82720230107110847171503-TO-1512                        000000000009500090ZAR                                                                B000000B       1512-TO-1503                        1351001057IB000000000000000000                                                                                                                                                                                                                                                  0000000000000000                                                                                                                                                                                                                            0000000000000001371628491                                                                                                                                   
NUTF0011PPPFEE  072200000901000000081916123CAMS00   000000000000000000000000000001000000137162893900003683114572023010900000000000000+0000000005000000000000000000000000000000000000000COUNTER WITHDRAWAL FEE                                      0000000000000000000000054800000000000000402017703400000001 057187970001451001501caa82-4406-46da-9cf2-d9c6a5108205                                    e5108d4d-d11b-567d-86bc-f7ffefc10d3620230107110847181503-TO-1512                        000000000009500090ZAR                                                                B000000B       1512-TO-1503                        1451001011IB000000000000000652                                                                                                                                                                                                                                                  0000000000000000                                                                                                                                                                                                                            0000000000000001371628939                                                                                                                                   
NUTF0011PPPFEE  072200000901000000082916123CAMS00   000000000000000000000000000009000000900061250000003683263012023010900000000000000+0000000004348000000000000000000000000000000000000CASH WITHDRAWAL                                   13716289390000000000000000000000054800000000000000402017703400000001 0571879700014510018019ed76-4db4-4088-a260-7ecd569bf254                                    e5108d4d-d11b-567d-86bc-f7ffefc10d3620230107110847181503-TO-1512                        000000000009500090ZAR                                                                B000000B       1512-TO-1503                        1451001011IB000000000000000000                                                                                                                                                                                                                                                  0000000000000000                                                                                                                                                                                                                            0000000000000001371628939                                                                                                                                   
NUTF0011PPPFEE  072200000901000000083916123CAMS00   000000000000000000000000000009000000900017400000003683263012023010900000000000000+0000000000652000000000000000000000000000000000000CASH WITHDRAWAL                                   13716289390000000000000000000000054800000000000000402017703400000001 057187970001451001248232db-3bf2-40a5-926e-b97c02cb8975                                    e5108d4d-d11b-567d-86bc-f7ffefc10d3620230107110847181503-TO-1512                        000000000009500090ZAR                                                                B000000B       1512-TO-1503                        1451001011IB000000000000000000                                                                                                                                                                                                                                                  0000000000000000                                                                                                                                                                                                                            0000000000000001371628939                                                                                                                                   
NUTF0011PPPFEE  072200000901000000084916123CAMS00   000000000000000000000000000001000000137163129800003683114572023010900000000000000+0000000000000000000000000000000000000000000000000MAINTENANCE FEE                                             0000000000000000000000000000000000000005002049486900000000 051095160003570000487712d9-2f3f-4e87-94e7-2af1143379cf                                    aac3bea2-3263-5fd0-8b67-d161fc05915d20230107110847221503-TO-1512                        000000000009500090ZAR                                                                B000000B       1512-TO-1503                        3570000094ZB000000000000000000                                                                                                                                                                                                                                                  0000000000000000                                                                                                                                                                                                                            0000000000000001371631298                                                                                                                                   
NUTF0011PPPFEE  072200000901000000085916123CAMS00   000000000000000000000000000001000000137182378200003683114052023010900000000000000+0000000002000000000000000000000000000000000000000SASWITCH FEE                                                0000000000000000000000100000000000000001202049486900000000 0510951600014201026bc40ef3-ef13-41cd-90a7-b90eaf99b74c                                    d9a70cb2-a53b-5e24-b3ce-443e44915f6620230107110847231503-TO-1512                        000000000009500090ZAR                                                                B000000B       1512-TO-1503                        1420102041IB000000000000000261                                                                                                                                                                                                                                                  0000000000000000                                                                                                                                                                                                                            0000000000000001371823782                                                                                                                                   
NUTF0011PPPFEE  072200000901000000086916123CAMS00   000000000000000000000000000009000000900072250000003683263012023010900000000000000+0000000001739000000000000000000000000000000000000SASWITCH FEE                                      13718237820000000000000000000000100000000000000001202049486900000000 051095160001420102a0f6f452-2071-40d0-a0b2-1594adcc3c18                                    d9a70cb2-a53b-5e24-b3ce-443e44915f6620230107110847231503-TO-1512                        000000000009500090ZAR                                                                B000000B       1512-TO-1503                        1420102041IB000000000000000000                                                                                                                                                                                                                                                  0000000000000000                                                                                                                                                                                                                            0000000000000001371823782                                                                                                                                   
NUTF0011PPPFEE  072200000901000000087916123CAMS00   000000000000000000000000000009000000900017400000003683263012023010900000000000000+0000000000261000000000000000000000000000000000000SASWITCH FEE                                      13718237820000000000000000000000100000000000000001202049486900000000 051095160001420102ebc2eb36-6d57-41bc-b3bd-c46b54b5eae2                                    d9a70cb2-a53b-5e24-b3ce-443e44915f6620230107110847231503-TO-1512                        000000000009500090ZAR                                                                B000000B       1512-TO-1503                        1420102041IB000000000000000000                                                                                                                                                                                                                                                  0000000000000000                                                                                                                                                                                                                            0000000000000001371823782                                                                                                                                   
NUTF0011PPPFEE  072200000901000000088916123CAMS00   000000000000000000000000000001000000137163265000003683114052023010900000000000000+0000000002000000000000000000000000000000000000000SASWITCH FEE                                                0000000000000000000000013900000000000001202049486900000000 051095160001420102add17010-4eb3-46c2-bf13-0e0275e4f77e                                    fc1d1ab9-6942-5824-ad13-797289b5129020230107110847251503-TO-1512                        000000000009500090ZAR                                                                B000000B       1512-TO-1503                        1420102041IB000000000000000261                                                                                                                                                                                                                                                  0000000000000000                                                                                                                                                                                                                            0000000000000001371632650                                                                                                                                   
NUTF0011PPPFEE  072200000901000000089916123CAMS00   000000000000000000000000000009000000900072250000003683263012023010900000000000000+0000000001739000000000000000000000000000000000000SASWITCH FEE                                      13716326500000000000000000000000013900000000000001202049486900000000 05109516000142010246003b97-dd97-41e0-8d88-4685b966e1bc                                    fc1d1ab9-6942-5824-ad13-797289b5129020230107110847251503-TO-1512                        000000000009500090ZAR                                                                B000000B       1512-TO-1503                        1420102041IB000000000000000000                                                                                                                                                                                                                                                  0000000000000000                                                                                                                                                                                                                            0000000000000001371632650                                                                                                                                   
NUTF0011PPPFEE  072200000901000000091916123CAMS00   000000000000000000000000000001000000137182464900003683114572023010900000000000000+0000000009900000000000000000000000000000000000000MAINTENANCE FEE                                             0000000000000000000000000000000000000005002049486900000000 051095160003570000bd393bad-d5cc-4d8c-a7e1-e32aa3cd6858                                    c55360e4-07eb-5fb3-a19b-4b94215162b020230107110847251503-TO-1512                        000000000009500090ZAR                                                                B000000B       1512-TO-1503                        3570000094IB000000000000001291                                                                                                                                                                                                                                                  0000000000000000                                                                                                                                                                                                                            0000000000000001371824649                                                                                                                                   
NUTF0011PPPFEE  072200000901000000090916123CAMS00   000000000000000000000000000009000000900017400000003683263012023010900000000000000+0000000000261000000000000000000000000000000000000SASWITCH FEE                                      13716326500000000000000000000000013900000000000001202049486900000000 051095160001420102509e7bb3-c9d7-4cbd-9030-a6ba7de0d826                                    fc1d1ab9-6942-5824-ad13-797289b5129020230107110847251503-TO-1512                        000000000009500090ZAR                                                                B000000B       1512-TO-1503                        1420102041IB000000000000000000                                                                                                                                                                                                                                                  0000000000000000                                                                                                                                                                                                                            0000000000000001371632650                                                                                                                                   
NUTF0011PPPFEE  072200000901000000092916123CAMS00   000000000000000000000000000009000000900079960000003683263012023010900000000000000+0000000008609000000000000000000000000000000000000MAINTENANCE FEE                                   13718246490000000000000000000000000000000000000005002049486900000000 0510951600035700003c039098-5b18-4281-97e1-209aad8107cd                                    c55360e4-07eb-5fb3-a19b-4b94215162b020230107110847251503-TO-1512                        000000000009500090ZAR                                                                B000000B       1512-TO-1503                        3570000094IB000000000000000000                                                                                                                                                                                                                                                  0000000000000000                                                                                                                                                                                                                            0000000000000001371824649                                                                                                                                   
NUTF0011PPPFEE  072200000901000000093916123CAMS00   000000000000000000000000000009000000900017400000003683263012023010900000000000000+0000000001291000000000000000000000000000000000000MAINTENANCE FEE                                   13718246490000000000000000000000000000000000000005002049486900000000 05109516000357000051e01d08-6eaf-4280-8872-ab0983ef1261                                    c55360e4-07eb-5fb3-a19b-4b94215162b020230107110847251503-TO-1512                        000000000009500090ZAR                                                                B000000B       1512-TO-1503                        3570000094IB000000000000000000                                                                                                                                                                                                                                                  0000000000000000                                                                                                                                                                                                                            0000000000000001371824649                                                                                                                                   
NUTF0011PPPFEE  072200000901000000094916123CAMS00   000000000000000000000000000001000000137163133600003683114572023010900000000000000+0000000000000000000000000000000000000000000000000eNote Service Fee 0SMS                                      0000000000000000000000000000000000000000602049486900000000 0510951600035900004009cecb-03d9-491f-b531-d9a257b0dfd5                                    f5503629-73a9-58de-8eae-c0b154cd534820230107110847261503-TO-1512                        000000000009500090ZAR                                                                B000000B       1512-TO-1503                        3590000095ZB000000000000000000                                                                                                                                                                                                                                                  0000000000000000                                                                                                                                                                                                                            0000000000000001371631336                                                                                                                                   
NUTF0011PPPFEE  072200000901000000095916123CAMS00   000000000000000000000000000001000000137163091700003683114052023010900000000000000+0000000003000000000000000000000000000000000000000SASWITCH FEE                                                0000000000000000000000101100000000000001202049486900000000 0510951600014201027f9847ef-080a-440a-8b46-2b69364affbe                                    6412b9e9-2277-505a-ba7b-73b0abe59f2b20230107110847271503-TO-1512                        000000000009500090ZAR                                                                B000000B       1512-TO-1503                        1420102041IB000000000000000391                                                                                                                                                                                                                                                  0000000000000000                                                                                                                                                                                                                            0000000000000001371630917                                                                                                                                   
NUTF0011PPPFEE  072200000901000000096916123CAMS00   000000000000000000000000000009000000900072250000003683263012023010900000000000000+0000000002609000000000000000000000000000000000000SASWITCH FEE                                      13716309170000000000000000000000101100000000000001202049486900000000 051095160001420102b231ad5c-ae0f-4158-840b-10bf13bd9535                                    6412b9e9-2277-505a-ba7b-73b0abe59f2b20230107110847271503-TO-1512                        000000000009500090ZAR                                                                B000000B       1512-TO-1503                        1420102041IB000000000000000000                                                                                                                                                                                                                                                  0000000000000000                                                                                                                                                                                                                            0000000000000001371630917                                                                                                                                   
NUTF0011PPPFEE  072200000901000000097916123CAMS00   000000000000000000000000000009000000900017400000003683263012023010900000000000000+0000000000391000000000000000000000000000000000000SASWITCH FEE                                      13716309170000000000000000000000101100000000000001202049486900000000 051095160001420102476bc0a0-98eb-428f-89c7-5006713524c0                                    6412b9e9-2277-505a-ba7b-73b0abe59f2b20230107110847271503-TO-1512                        000000000009500090ZAR                                                                B000000B       1512-TO-1503                        1420102041IB000000000000000000                                                                                                                                                                                                                                                  0000000000000000                                                                                                                                                                                                                            0000000000000001371630917                                                                                                                                   
NUTF0011PPPFEE  05900000BB0900000009812092 ATM      000000000000000000000000000001000000137162879300000590114052023010900000000000000+0000000020000000000000000000000000000000000000000CHARGE_NARRATIVE_EN                                         0000000000000000000000000000000000000012302000000001840740 0032509000014190000e02ae10-7bc7-4dc6-9f4b-710b286fafa5                                    4f3e5439-1fc3-519f-a887-f263f3b276f220230107110847291503-TO-1512                        000000000009500090ZAR                                                                B000000B       1512-TO-1503                        1419000017IB000000000000002609                                                                                                                                                                                                                                                  0000000000000000                                                                                                                                                                                                                            0000000000000001371628793                                                                                                                                   
NUTF0011PPPFEE  05900000BB0900000009912092 ATM      000000000000000000000000000009000000900061200000000590263012023010900000000000000+0000000017391000000000000000000000000000000000000Electronic Transfer At Teller                     13716287930000000000000000000000000000000000000012302000000001840740 0032509000014190005e9220b9-caae-48c4-af44-70c1797b7a4e                                    4f3e5439-1fc3-519f-a887-f263f3b276f220230107110847291503-TO-1512                        000000000009500090ZAR                                                                B000000B       1512-TO-1503                        1419000017IB000000000000000000                                                                                                                                                                                                                                                  0000000000000000                                                                                                                                                                                                                            0000000000000001371628793                                                                                                                                   
NUTF0011PPPFEE  05900000BB0900000010012092 ATM      000000000000000000000000000009000000900017400000000590263012023010900000000000000+0000000002609000000000000000000000000000000000000Electronic Transfer At Teller                     13716287930000000000000000000000000000000000000012302000000001840740 00325090000141900031026b53-0208-424a-869b-321684ae515a                                    4f3e5439-1fc3-519f-a887-f263f3b276f220230107110847291503-TO-1512                        000000000009500090ZAR                                                                B000000B       1512-TO-1503                        1419000017IB000000000000000000                                                                                                                                                                                                                                                  0000000000000000                                                                                                                                                                                                                            0000000000000001371628793                                                                                                                                   
NUTF0011PPPFEE  072200000901000000101916123CAMS00   000000000000000000000000000001000000137163133600003683114052023010900000000000000+0000000006000000000000000000000000000000000000000SASWITCH FEE                                                0000000000000000000000447100000000000001202049486900000000 0510951600014201023b3d06f3-8beb-4d41-b0b4-8234f79d2160                                    abadc6ea-9cb3-5cb1-979f-d4231de7d78020230107110847301503-TO-1512                        000000000009500090ZAR                                                                B000000B       1512-TO-1503                        1420102041IB000000000000000783                                                                                                                                                                                                                                                  0000000000000000                                                                                                                                                                                                                            0000000000000001371631336                                                                                                                                   
NUTF0011PPPFEE  072200000901000000102916123CAMS00   000000000000000000000000000009000000900072250000003683263012023010900000000000000+0000000005217000000000000000000000000000000000000SASWITCH FEE                                      13716313360000000000000000000000447100000000000001202049486900000000 0510951600014201023b4e3a77-74fc-42e7-806a-ce17e0d3a90d                                    abadc6ea-9cb3-5cb1-979f-d4231de7d78020230107110847301503-TO-1512                        000000000009500090ZAR                                                                B000000B       1512-TO-1503                        1420102041IB000000000000000000                                                                                                                                                                                                                                                  0000000000000000                                                                                                                                                                                                                            0000000000000001371631336                                                                                                                                   
NUTF0011PPPFEE  072200000901000000103916123CAMS00   000000000000000000000000000009000000900017400000003683263012023010900000000000000+0000000000783000000000000000000000000000000000000SASWITCH FEE                                      13716313360000000000000000000000447100000000000001202049486900000000 051095160001420102e7bc002c-bd7c-4d9a-98c8-42c5e33481ca                                    abadc6ea-9cb3-5cb1-979f-d4231de7d78020230107110847301503-TO-1512                        000000000009500090ZAR                                                                B000000B       1512-TO-1503                        1420102041IB000000000000000000                                                                                                                                                                                                                                                  0000000000000000                                                                                                                                                                                                                            0000000000000001371631336                                                                                                                                   
NUTF0011PPPFEE  09600000090100000010411443H2H       000000000000000000000000000001000000137182339100003683114352023010900000000000000+0000000000000000000000000000000000000000000000000ATM CASH DEPOSIT FEE                                        0000000000000000000000429300000000000000312000000002181280 00887111000135100388a57047-8056-45eb-b416-61a08992170e                                    18c88c21-3d75-5a4e-8d71-ef2b748f7eb520230107110847301503-TO-1512                        000000000009500090ZAR                                                                B000000B       1512-TO-1503                        1351003003ZB000000000000000000                                                                                                                                                                                                                                                  0000000000000000                                                                                                                                                                                                                            0000000000000001371823391                                                                                                                                   
NUTF0011PPPFEE  072200000901000000105916123CAMS00   000000000000000000000000000001000000137182390100003683114572023010900000000000000+0000000000000000000000000000000000000000000000000eNote Service Fee 0SMS                                      0000000000000000000000000000000000000000602049486900000000 051095160003590000f0d63f0f-c390-4c3f-9f5b-ae10a5243361                                    a8d49362-8e2a-52fc-bcb1-eb4d5beddcb820230107110847311503-TO-1512                        000000000009500090ZAR                                                                B000000B       1512-TO-1503                        3590000095ZB000000000000000000                                                                                                                                                                                                                                                  0000000000000000                                                                                                                                                                                                                            0000000000000001371823901                                                                                                                                   
NUTF0011PPPFEE  072200000901000000106916123CAMS00   000000000000000000000000000001000000137182470300003683114572023010900000000000000+0000000009900000000000000000000000000000000000000MAINTENANCE FEE                                             0000000000000000000000000000000000000005002049486900000000 051095160003570000a531ed75-fef0-4a73-a68d-0a3c4bfac53c                                    f6405b67-0111-5590-a492-384fa25d77e820230107110847321503-TO-1512                        000000000009500090ZAR                                                                B000000B       1512-TO-1503                        3570000094IB000000000000001291                                                                                                                                                                                                                                                  0000000000000000                                                                                                                                                                                                                            0000000000000001371824703                                                                                                                                   
NUTF0011PPPFEE  072200000901000000107916123CAMS00   000000000000000000000000000009000000900079960000003683263012023010900000000000000+0000000008609000000000000000000000000000000000000MAINTENANCE FEE                                   13718247030000000000000000000000000000000000000005002049486900000000 0510951600035700006f566b5f-7d12-4f44-9aa6-f4dd32f91c87                                    f6405b67-0111-5590-a492-384fa25d77e820230107110847321503-TO-1512                        000000000009500090ZAR                                                                B000000B       1512-TO-1503                        3570000094IB000000000000000000                                                                                                                                                                                                                                                  0000000000000000                                                                                                                                                                                                                            0000000000000001371824703                                                                                                                                   
NUTF0011PPPFEE  072200000901000000108916123CAMS00   000000000000000000000000000009000000900017400000003683263012023010900000000000000+0000000001291000000000000000000000000000000000000MAINTENANCE FEE                                   13718247030000000000000000000000000000000000000005002049486900000000 051095160003570000788d709c-8a8c-45b1-9720-e8d6e3268592                                    f6405b67-0111-5590-a492-384fa25d77e820230107110847321503-TO-1512                        000000000009500090ZAR                                                                B000000B       1512-TO-1503                        3570000094IB000000000000000000                                                                                                                                                                                                                                                  0000000000000000                                                                                                                                                                                                                            0000000000000001371824703                                                                                                                                   
NUTF0011PPPFEE  072200000901000000109916123CAMS00   000000000000000000000000000001000000137163092500003683114052023010900000000000000+0000000006000000000000000000000000000000000000000SASWITCH FEE                                                0000000000000000000000447100000000000001202049486900000000 051095160001420102421912a8-1d1f-4e7f-8ac8-49f72a75127e                                    e1120015-ad11-5c54-b3df-b1c68bfc422a20230107110847321503-TO-1512                        000000000009500090ZAR                                                                B000000B       1512-TO-1503                        1420102041IB000000000000000783                                                                                                                                                                                                                                                  0000000000000000                                                                                                                                                                                                                            0000000000000001371630925                                                                                                                                   
NUTF0011PPPFEE  072200000901000000110916123CAMS00   000000000000000000000000000009000000900072250000003683263012023010900000000000000+0000000005217000000000000000000000000000000000000SASWITCH FEE                                      13716309250000000000000000000000447100000000000001202049486900000000 051095160001420102c0a9bb85-154a-4311-9fe9-6c31ddde1f5f                                    e1120015-ad11-5c54-b3df-b1c68bfc422a20230107110847321503-TO-1512                        000000000009500090ZAR                                                                B000000B       1512-TO-1503                        1420102041IB000000000000000000                                                                                                                                                                                                                                                  0000000000000000                                                                                                                                                                                                                            0000000000000001371630925                                                                                                                                   
NUTF0011PPPFEE  072200000901000000111916123CAMS00   000000000000000000000000000009000000900017400000003683263012023010900000000000000+0000000000783000000000000000000000000000000000000SASWITCH FEE                                      13716309250000000000000000000000447100000000000001202049486900000000 0510951600014201027b8383ed-3c88-4b05-884a-463d2b39d30c                                    e1120015-ad11-5c54-b3df-b1c68bfc422a20230107110847321503-TO-1512                        000000000009500090ZAR                                                                B000000B       1512-TO-1503                        1420102041IB000000000000000000                                                                                                                                                                                                                                                  0000000000000000                                                                                                                                                                                                                            0000000000000001371630925                                                                                                                                   
NUTF0011PPPFEE  072200000901000000115916123CAMS00   000000000000000000000000000001000000137163154900003683114572023010900000000000000+0000000000000000000000000000000000000000000000000MAINTENANCE FEE                                             0000000000000000000000000000000000000005002049486900000000 051095160003570000c503de8f-5c2f-47ab-863b-52ba16ab1d9b                                    3b11c609-3e34-5d55-911e-b25788cb457720230107110847331503-TO-1512                        000000000009500090ZAR                                                                B000000B       1512-TO-1503                        3570000094ZB000000000000000000                                                                                                                                                                                                                                                  0000000000000000                                                                                                                                                                                                                            0000000000000001371631549                                                                                                                                   
NUTF0011PPPFEE  09600000090100000011211443H2H       000000000000000000000000000001000000137181873800003683114352023010900000000000000+0000000015000000000000000000000000000000000000000BR CASH R2327.0FEE                                          0000000000000000000000232700000000000000412000000002181280 0088711100013510015259c1b8-c28f-4eca-8040-a153ba88b417                                    d2a130bf-138b-57e5-a620-a447a125839320230107110847331503-TO-1512                        000000000009500090ZAR                                                                B000000B       1512-TO-1503                        1351001057IB000000000000001957                                                                                                                                                                                                                                                  0000000000000000                                                                                                                                                                                                                            0000000000000001371818738                                                                                                                                   
NUTF0011PPPFEE  09600000090100000011311443H2H       000000000000000000000000000009000000900061250000003683263012023010900000000000000+0000000013043000000000000000000000000000000000000CASH DEPOSIT                                      13718187380000000000000000000000232700000000000000412000000002181280 0088711100013510012390ef24-79b8-463b-8c94-18b2374b8534                                    d2a130bf-138b-57e5-a620-a447a125839320230107110847331503-TO-1512                        000000000009500090ZAR                                                                B000000B       1512-TO-1503                        1351001057IB000000000000000000                                                                                                                                                                                                                                                  0000000000000000                                                                                                                                                                                                                            0000000000000001371818738                                                                                                                                   
NUTF0011PPPFEE  09600000090100000011411443H2H       000000000000000000000000000009000000900017400000003683263012023010900000000000000+0000000001957000000000000000000000000000000000000CASH DEPOSIT                                      13718187380000000000000000000000232700000000000000412000000002181280 0088711100013510010fa67cbf-3e38-42c1-92f0-cc97c18d9481                                    d2a130bf-138b-57e5-a620-a447a125839320230107110847331503-TO-1512                        000000000009500090ZAR                                                                B000000B       1512-TO-1503                        1351001057IB000000000000000000                                                                                                                                                                                                                                                  0000000000000000                                                                                                                                                                                                                            0000000000000001371818738                                                                                                                                   
NUTF0011PPPFEE  09600000090100000011611443H2H       000000000000000000000000000001000000137181873800003683114352023010900000000000000+0000000000000000000000000000000000000000000000000CASH TRANSACTION FEE                                        0000000000000000000000232700000000000000412000000002181280 0088711100013510018fa7df05-870b-4251-8902-d0db1a36e082                                    d2a130bf-138b-57e5-a620-a447a125839320230107110847331503-TO-1512                        000000000009500090ZAR                                                                B000000B       1512-TO-1503                        1351001057ZB000000000000000000                                                                                                                                                                                                                                                  0000000000000000                                                                                                                                                                                                                            0000000000000001371818738                                                                                                                                   
NUTF0011PPPFEE  09600000090100000011711443H2H       000000000000000000000000000001000000137162881500003683114352023010900000000000000+0000000000000000000000000000000000000000000000000CASH TRANSACTION FEE                                        0000000000000000000000036700000000000000412000000002181280 00887111000135100143295eab-724c-41d7-8153-3f70db5ccd48                                    4ab4a24c-057c-58f0-b06e-ea99f0cdef8120230107110847351503-TO-1512                        000000000009500090ZAR                                                                B000000B       1512-TO-1503                        1351001057ZB000000000000000000                                                                                                                                                                                                                                                  0000000000000000                                                                                                                                                                                                                            0000000000000001371628815                                                                                                                                   
NUTF0011PPPFEE  072200000901000000119916123CAMS00   000000000000000000000000000001000000137182339100003683114572023010900000000000000+0000000000000000000000000000000000000000000000000COUNTER WITHDRAWAL FEE                                      0000000000000000000000482400000000000000402017703400000001 0571879700014510010b121ff0-29e7-49cc-a536-cef1fe913391                                    d94680b8-3567-5df0-9615-439d20e141a220230107110847351503-TO-1512                        000000000009500090ZAR                                                                B000000B       1512-TO-1503                        1451001011ZB000000000000000000                                                                                                                                                                                                                                                  0000000000000000                                                                                                                                                                                                                            0000000000000001371823391                                                                                                                                   
NUTF0011PPPFEE  05900000BB0900000012712092 ATM      000000000000000000000000000001000000137163154900000590114052023010900000000000000+0000000020000000000000000000000000000000000000000CHARGE_NARRATIVE_EN                                         0000000000000000000000000000000000000012302000000001840740 0032509000014190003e6364b0-9efb-4b5e-bef3-92cb60d27776                                    af73460e-972b-572d-a099-60f0e29842fb20230107110847351503-TO-1512                        000000000009500090ZAR                                                                B000000B       1512-TO-1503                        1419000017IB000000000000002609                                                                                                                                                                                                                                                  0000000000000000                                                                                                                                                                                                                            0000000000000001371631549                                                                                                                                   
NUTF0011PPPFEE  09600000090100000011811443H2H       000000000000000000000000000001000000137162881500003683114352023010900000000000000+0000000005000000000000000000000000000000000000000BR CASH R367.0FEE                                           0000000000000000000000036700000000000000412000000002181280 00887111000135100158823371-9435-41c4-97e0-d8bedf71ad88                                    4ab4a24c-057c-58f0-b06e-ea99f0cdef8120230107110847351503-TO-1512                        000000000009500090ZAR                                                                B000000B       1512-TO-1503                        1351001057IB000000000000000652                                                                                                                                                                                                                                                  0000000000000000                                                                                                                                                                                                                            0000000000000001371628815                                                                                                                                   
NUTF0011PPPFEE  072200000901000000120916123CAMS00   000000000000000000000000000001000000137162893900003683114052023010900000000000000+0000000002000000000000000000000000000000000000000SASWITCH FEE                                                0000000000000000000000013900000000000001202049486900000000 05109516000142010245d0d819-7796-4e87-b065-7333aaff78fc                                    7f43dc58-8092-56a9-a178-3ccc59e08e5f20230107110847351503-TO-1512                        000000000009500090ZAR                                                                B000000B       1512-TO-1503                        1420102041IB000000000000000261                                                                                                                                                                                                                                                  0000000000000000                                                                                                                                                                                                                            0000000000000001371628939                                                                                                                                   
NUTF0011PPPFEE  09600000090100000012111443H2H       000000000000000000000000000009000000900061250000003683263012023010900000000000000+0000000004348000000000000000000000000000000000000CASH DEPOSIT                                      13716288150000000000000000000000036700000000000000412000000002181280 008871110001351001ac2804ed-5d49-45ed-85a3-5a8b5a0d6d8f                                    4ab4a24c-057c-58f0-b06e-ea99f0cdef8120230107110847351503-TO-1512                        000000000009500090ZAR                                                                B000000B       1512-TO-1503                        1351001057IB000000000000000000                                                                                                                                                                                                                                                  0000000000000000                                                                                                                                                                                                                            0000000000000001371628815                                                                                                                                   
NUTF0011PPPFEE  05900000BB0900000012912092 ATM      000000000000000000000000000009000000900061200000000590263012023010900000000000000+0000000017391000000000000000000000000000000000000Electronic Transfer At Teller                     13716315490000000000000000000000000000000000000012302000000001840740 003250900001419000b7e8c177-86cc-4f07-a45c-5c9e456fa0ad                                    af73460e-972b-572d-a099-60f0e29842fb20230107110847351503-TO-1512                        000000000009500090ZAR                                                                B000000B       1512-TO-1503                        1419000017IB000000000000000000                                                                                                                                                                                                                                                  0000000000000000                                                                                                                                                                                                                            0000000000000001371631549                                                                                                                                   
NUTF0011PPPFEE  09600000090100000012311443H2H       000000000000000000000000000009000000900017400000003683263012023010900000000000000+0000000000652000000000000000000000000000000000000CASH DEPOSIT                                      13716288150000000000000000000000036700000000000000412000000002181280 0088711100013510015c7a8709-b4f2-45fc-afb3-7fc80200c0da                                    4ab4a24c-057c-58f0-b06e-ea99f0cdef8120230107110847351503-TO-1512                        000000000009500090ZAR                                                                B000000B       1512-TO-1503                        1351001057IB000000000000000000                                                                                                                                                                                                                                                  0000000000000000                                                                                                                                                                                                                            0000000000000001371628815                                                                                                                                   
NUTF0011PPPFEE  05900000BB0900000013012092 ATM      000000000000000000000000000009000000900017400000000590263012023010900000000000000+0000000002609000000000000000000000000000000000000Electronic Transfer At Teller                     13716315490000000000000000000000000000000000000012302000000001840740 003250900001419000b8064e9d-9a02-4b50-88c8-350a3f2c6e77                                    af73460e-972b-572d-a099-60f0e29842fb20230107110847351503-TO-1512                        000000000009500090ZAR                                                                B000000B       1512-TO-1503                        1419000017IB000000000000000000                                                                                                                                                                                                                                                  0000000000000000                                                                                                                                                                                                                            0000000000000001371631549                                                                                                                                   
NUTF0011PPPFEE  072200000901000000122916123CAMS00   000000000000000000000000000009000000900072250000003683263012023010900000000000000+0000000001739000000000000000000000000000000000000SASWITCH FEE                                      13716289390000000000000000000000013900000000000001202049486900000000 05109516000142010216535a8b-754f-4221-af5e-89699e776691                                    7f43dc58-8092-56a9-a178-3ccc59e08e5f20230107110847351503-TO-1512                        000000000009500090ZAR                                                                B000000B       1512-TO-1503                        1420102041IB000000000000000000                                                                                                                                                                                                                                                  0000000000000000                                                                                                                                                                                                                            0000000000000001371628939                                                                                                                                   
NUTF0011PPPFEE  072200000901000000124916123CAMS00   000000000000000000000000000009000000900017400000003683263012023010900000000000000+0000000000261000000000000000000000000000000000000SASWITCH FEE                                      13716289390000000000000000000000013900000000000001202049486900000000 0510951600014201026195e124-a3e1-439d-9a24-c8e1203da913                                    7f43dc58-8092-56a9-a178-3ccc59e08e5f20230107110847351503-TO-1512                        000000000009500090ZAR                                                                B000000B       1512-TO-1503                        1420102041IB000000000000000000                                                                                                                                                                                                                                                  0000000000000000                                                                                                                                                                                                                            0000000000000001371628939                                                                                                                                   
NUTF0011PPPFEE  072200000901000000125916123CAMS00   000000000000000000000000000001000000137182390100003683114052023010900000000000000+0000000005000000000000000000000000000000000000000SASWITCH FEE                                                0000000000000000000000311900000000000001202049486900000000 051095160001420102a8eec1e3-b9fe-412c-8489-8bd78b9fcd62                                    7c458cc8-0a37-5550-8491-adab58234a8020230107110847351503-TO-1512                        000000000009500090ZAR                                                                B000000B       1512-TO-1503                        1420102041IB000000000000000652                                                                                                                                                                                                                                                  0000000000000000                                                                                                                                                                                                                            0000000000000001371823901                                                                                                                                   
NUTF0011PPPFEE  072200000901000000126916123CAMS00   000000000000000000000000000009000000900072250000003683263012023010900000000000000+0000000004348000000000000000000000000000000000000SASWITCH FEE                                      13718239010000000000000000000000311900000000000001202049486900000000 0510951600014201020bedaf93-828d-44fe-ba81-6d862ece02dc                                    7c458cc8-0a37-5550-8491-adab58234a8020230107110847351503-TO-1512                        000000000009500090ZAR                                                                B000000B       1512-TO-1503                        1420102041IB000000000000000000                                                                                                                                                                                                                                                  0000000000000000                                                                                                                                                                                                                            0000000000000001371823901                                                                                                                                   
NUTF0011PPPFEE  072200000901000000128916123CAMS00   000000000000000000000000000009000000900017400000003683263012023010900000000000000+0000000000652000000000000000000000000000000000000SASWITCH FEE                                      13718239010000000000000000000000311900000000000001202049486900000000 0510951600014201022bc46e19-203a-4328-b72c-a71030af2398                                    7c458cc8-0a37-5550-8491-adab58234a8020230107110847351503-TO-1512                        000000000009500090ZAR                                                                B000000B       1512-TO-1503                        1420102041IB000000000000000000                                                                                                                                                                                                                                                  0000000000000000                                                                                                                                                                                                                            0000000000000001371823901                                                                                                                                   
NUTF0011PPPFEE  072200000901000000132916123CAMS00   000000000000000000000000000001000000137163096800003683114052023010900000000000000+0000000005000000000000000000000000000000000000000SASWITCH FEE                                                0000000000000000000000311900000000000001202049486900000000 051095160001420102879a7601-0f2b-493b-9a41-afadb426b503                                    622fd158-bcd3-5156-8eda-9605fe4edd3520230107110847381503-TO-1512                        000000000009500090ZAR                                                                B000000B       1512-TO-1503                        1420102041IB000000000000000652                                                                                                                                                                                                                                                  0000000000000000                                                                                                                                                                                                                            0000000000000001371630968                                                                                                                                   
NUTF0011PPPFEE  072200000901000000131916123CAMS00   000000000000000000000000000001000000137182479700003683114052023010900000000000000+0000000002000000000000000000000000000000000000000SASWITCH FEE                                                0000000000000000000000099800000000000001202049486900000000 05109516000142010283855dae-6c74-4ecd-9b49-1c2fa902b33c                                    d036f297-0e03-559f-a3fa-c95012f5f2a020230107110847381503-TO-1512                        000000000009500090ZAR                                                                B000000B       1512-TO-1503                        1420102041IB000000000000000261                                                                                                                                                                                                                                                  0000000000000000                                                                                                                                                                                                                            0000000000000001371824797                                                                                                                                   
NUTF0011PPPFEE  072200000901000000134916123CAMS00   000000000000000000000000000009000000900072250000003683263012023010900000000000000+0000000004348000000000000000000000000000000000000SASWITCH FEE                                      13716309680000000000000000000000311900000000000001202049486900000000 051095160001420102f9e78d61-a225-494d-b719-5eb7edd64e2e                                    622fd158-bcd3-5156-8eda-9605fe4edd3520230107110847381503-TO-1512                        000000000009500090ZAR                                                                B000000B       1512-TO-1503                        1420102041IB000000000000000000                                                                                                                                                                                                                                                  0000000000000000                                                                                                                                                                                                                            0000000000000001371630968                                                                                                                                   
NUTF0011PPPFEE  072200000901000000133916123CAMS00   000000000000000000000000000009000000900072250000003683263012023010900000000000000+0000000001739000000000000000000000000000000000000SASWITCH FEE                                      13718247970000000000000000000000099800000000000001202049486900000000 05109516000142010226a37f2d-bc43-4695-9c64-3b174c496c5c                                    d036f297-0e03-559f-a3fa-c95012f5f2a020230107110847381503-TO-1512                        000000000009500090ZAR                                                                B000000B       1512-TO-1503                        1420102041IB000000000000000000                                                                                                                                                                                                                                                  0000000000000000                                                                                                                                                                                                                            0000000000000001371824797                                                                                                                                   
NUTF0011PPPFEE  072200000901000000136916123CAMS00   000000000000000000000000000009000000900017400000003683263012023010900000000000000+0000000000652000000000000000000000000000000000000SASWITCH FEE                                      13716309680000000000000000000000311900000000000001202049486900000000 051095160001420102ffc73750-2712-4be8-8a59-eae13abf3d62                                    622fd158-bcd3-5156-8eda-9605fe4edd3520230107110847381503-TO-1512                        000000000009500090ZAR                                                                B000000B       1512-TO-1503                        1420102041IB000000000000000000                                                                                                                                                                                                                                                  0000000000000000                                                                                                                                                                                                                            0000000000000001371630968                                                                                                                                   
NUTF0011PPPFEE  072200000901000000137916123CAMS00   000000000000000000000000000001000000137163182400003683114052023010900000000000000+0000000002000000000000000000000000000000000000000SASWITCH FEE                                                0000000000000000000000100000000000000001202049486900000000 05109516000142010295962dc3-65b0-4f0c-ae4d-d6ff680c4bd7                                    37915c1e-d035-5c6d-a173-0ea5b3fb163e20230107110847401503-TO-1512                        000000000009500090ZAR                                                                B000000B       1512-TO-1503                        1420102041IB000000000000000261                                                                                                                                                                                                                                                  0000000000000000                                                                                                                                                                                                                            0000000000000001371631824                                                                                                                                   
NUTF0011PPPFEE  072200000901000000135916123CAMS00   000000000000000000000000000009000000900017400000003683263012023010900000000000000+0000000000261000000000000000000000000000000000000SASWITCH FEE                                      13718247970000000000000000000000099800000000000001202049486900000000 051095160001420102555328dc-cf2c-4daa-9b5b-0f98013522e7                                    d036f297-0e03-559f-a3fa-c95012f5f2a020230107110847381503-TO-1512                        000000000009500090ZAR                                                                B000000B       1512-TO-1503                        1420102041IB000000000000000000                                                                                                                                                                                                                                                  0000000000000000                                                                                                                                                                                                                            0000000000000001371824797                                                                                                                                   
NUTF0011PPPFEE  072200000901000000138916123CAMS00   000000000000000000000000000009000000900072250000003683263012023010900000000000000+0000000001739000000000000000000000000000000000000SASWITCH FEE                                      13716318240000000000000000000000100000000000000001202049486900000000 051095160001420102cca11692-2d1d-4f3e-9dad-b60be83545b0                                    37915c1e-d035-5c6d-a173-0ea5b3fb163e20230107110847401503-TO-1512                        000000000009500090ZAR                                                                B000000B       1512-TO-1503                        1420102041IB000000000000000000                                                                                                                                                                                                                                                  0000000000000000                                                                                                                                                                                                                            0000000000000001371631824                                                                                                                                   
NUTF0011PPPFEE  072200000901000000139916123CAMS00   000000000000000000000000000009000000900017400000003683263012023010900000000000000+0000000000261000000000000000000000000000000000000SASWITCH FEE                                      13716318240000000000000000000000100000000000000001202049486900000000 05109516000142010216c6721e-c770-468d-b169-fe1f0e2ab1ea                                    37915c1e-d035-5c6d-a173-0ea5b3fb163e20230107110847401503-TO-1512                        000000000009500090ZAR                                                                B000000B       1512-TO-1503                        1420102041IB000000000000000000                                                                                                                                                                                                                                                  0000000000000000                                                                                                                                                                                                                            0000000000000001371631824                                                                                                                                   
NUTF0011PPPFEE  072200000901000000140916123CAMS00   000000000000000000000000000001000000137182339100003683114052023010900000000000000+0000000002000000000000000000000000000000000000000SASWITCH FEE                                                0000000000000000000000099800000000000001202049486900000000 051095160001420102c95df970-017a-491b-b7f2-d41e958ad6e1                                    b32e6a1b-c534-5f9f-8b71-7642ff1e2eae20230107110847401503-TO-1512                        000000000009500090ZAR                                                                B000000B       1512-TO-1503                        1420102041IB000000000000000261                                                                                                                                                                                                                                                  0000000000000000                                                                                                                                                                                                                            0000000000000001371823391                                                                                                                                   
NUTF0011PPPFEE  072200000901000000141916123CAMS00   000000000000000000000000000009000000900072250000003683263012023010900000000000000+0000000001739000000000000000000000000000000000000SASWITCH FEE                                      13718233910000000000000000000000099800000000000001202049486900000000 051095160001420102478dc1bc-0922-4fb6-8823-a34c97a0ef30                                    b32e6a1b-c534-5f9f-8b71-7642ff1e2eae20230107110847401503-TO-1512                        000000000009500090ZAR                                                                B000000B       1512-TO-1503                        1420102041IB000000000000000000                                                                                                                                                                                                                                                  0000000000000000                                                                                                                                                                                                                            0000000000000001371823391                                                                                                                                   
NUTF0011PPPFEE  072200000901000000142916123CAMS00   000000000000000000000000000009000000900017400000003683263012023010900000000000000+0000000000261000000000000000000000000000000000000SASWITCH FEE                                      13718233910000000000000000000000099800000000000001202049486900000000 051095160001420102bba4db98-bc7f-4cbd-b779-d775f77a8ed4                                    b32e6a1b-c534-5f9f-8b71-7642ff1e2eae20230107110847401503-TO-1512                        000000000009500090ZAR                                                                B000000B       1512-TO-1503                        1420102041IB000000000000000000                                                                                                                                                                                                                                                  0000000000000000                                                                                                                                                                                                                            0000000000000001371823391                                                                                                                                   
